{
  "contractName": "Mail",
  "abi": [
    {
      "inputs": [
        {
          "internalType": "uint256",
          "name": "",
          "type": "uint256"
        }
      ],
      "name": "_document_key",
      "outputs": [
        {
          "internalType": "string",
          "name": "",
          "type": "string"
        }
      ],
      "stateMutability": "view",
      "type": "function",
      "constant": true
    },
    {
      "inputs": [
        {
          "internalType": "string",
          "name": "_key",
          "type": "string"
        },
        {
          "internalType": "string",
          "name": "name1",
          "type": "string"
        },
        {
          "internalType": "string",
          "name": "description1",
          "type": "string"
        },
        {
          "internalType": "address",
          "name": "owner1",
          "type": "address"
        },
        {
          "internalType": "uint256",
          "name": "price1",
          "type": "uint256"
        },
        {
          "internalType": "string",
          "name": "path1",
          "type": "string"
        },
        {
          "internalType": "string",
          "name": "pathBlur1",
          "type": "string"
        }
      ],
      "name": "addDocument",
      "outputs": [],
      "stateMutability": "nonpayable",
      "type": "function"
    },
    {
      "inputs": [],
      "name": "getDocuments",
      "outputs": [
        {
          "internalType": "string[]",
          "name": "",
          "type": "string[]"
        },
        {
          "components": [
            {
              "internalType": "string",
              "name": "name",
              "type": "string"
            },
            {
              "internalType": "string",
              "name": "description",
              "type": "string"
            },
            {
              "internalType": "address",
              "name": "owner",
              "type": "address"
            },
            {
              "internalType": "uint256",
              "name": "price",
              "type": "uint256"
            },
            {
              "internalType": "string",
              "name": "path",
              "type": "string"
            }
          ],
          "internalType": "struct Mail.Document[]",
          "name": "",
          "type": "tuple[]"
        }
      ],
      "stateMutability": "view",
      "type": "function",
      "constant": true
    },
    {
      "inputs": [
        {
          "internalType": "string",
          "name": "_key",
          "type": "string"
        }
      ],
      "name": "getDocumentByKey",
      "outputs": [
        {
          "components": [
            {
              "internalType": "string",
              "name": "name",
              "type": "string"
            },
            {
              "internalType": "string",
              "name": "description",
              "type": "string"
            },
            {
              "internalType": "address",
              "name": "owner",
              "type": "address"
            },
            {
              "internalType": "uint256",
              "name": "price",
              "type": "uint256"
            },
            {
              "internalType": "string",
              "name": "path",
              "type": "string"
            }
          ],
          "internalType": "struct Mail.Document",
          "name": "",
          "type": "tuple"
        }
      ],
      "stateMutability": "view",
      "type": "function",
      "constant": true
    },
    {
      "inputs": [
        {
          "internalType": "address payable",
          "name": "_to",
          "type": "address"
        },
        {
          "internalType": "uint256",
          "name": "price1",
          "type": "uint256"
        }
      ],
      "name": "buyDocument",
      "outputs": [],
      "stateMutability": "payable",
      "type": "function",
      "payable": true
    }
  ],
  "bytecode": "0x608060405234801561001057600080fd5b506118c7806100206000396000f3fe60806040526004361061004a5760003560e01c80631874aa891461004f57806324f2ae1f1461008c578063b604c726146100c9578063db1724fb146100e5578063ef2d87001461010e575b600080fd5b34801561005b57600080fd5b5061007660048036038101906100719190610bba565b61013a565b6040516100839190610c77565b60405180910390f35b34801561009857600080fd5b506100b360048036038101906100ae9190610dce565b6101e6565b6040516100c09190610f35565b60405180910390f35b6100e360048036038101906100de9190610f95565b610434565b005b3480156100f157600080fd5b5061010c60048036038101906101079190611001565b6104e5565b005b34801561011a57600080fd5b50610123610705565b604051610131929190611337565b60405180910390f35b6002818154811061014a57600080fd5b9060005260206000200160009150905080546101659061139d565b80601f01602080910402602001604051908101604052809291908181526020018280546101919061139d565b80156101de5780601f106101b3576101008083540402835291602001916101de565b820191906000526020600020905b8154815290600101906020018083116101c157829003601f168201915b505050505081565b6101ee610b2b565b6000826040516101fe919061140a565b90815260200160405180910390206040518060a00160405290816000820180546102279061139d565b80601f01602080910402602001604051908101604052809291908181526020018280546102539061139d565b80156102a05780601f10610275576101008083540402835291602001916102a0565b820191906000526020600020905b81548152906001019060200180831161028357829003601f168201915b505050505081526020016001820180546102b99061139d565b80601f01602080910402602001604051908101604052809291908181526020018280546102e59061139d565b80156103325780601f1061030757610100808354040283529160200191610332565b820191906000526020600020905b81548152906001019060200180831161031557829003601f168201915b505050505081526020016002820160009054906101000a900473ffffffffffffffffffffffffffffffffffffffff1673ffffffffffffffffffffffffffffffffffffffff1673ffffffffffffffffffffffffffffffffffffffff168152602001600382015481526020016004820180546103ab9061139d565b80601f01602080910402602001604051908101604052809291908181526020018280546103d79061139d565b80156104245780601f106103f957610100808354040283529160200191610424565b820191906000526020600020905b81548152906001019060200180831161040757829003601f168201915b5050505050815250509050919050565b60008273ffffffffffffffffffffffffffffffffffffffff168260405161045a90611452565b60006040518083038185875af1925050503d8060008114610497576040519150601f19603f3d011682016040523d82523d6000602084013e61049c565b606091505b50509050806104e0576040517f08c379a00000000000000000000000000000000000000000000000000000000081526004016104d7906114b3565b60405180910390fd5b505050565b6040518060a001604052808781526020018681526020018573ffffffffffffffffffffffffffffffffffffffff16815260200184815260200183815250600088604051610532919061140a565b90815260200160405180910390206000820151816000019081610555919061167f565b50602082015181600101908161056b919061167f565b5060408201518160020160006101000a81548173ffffffffffffffffffffffffffffffffffffffff021916908373ffffffffffffffffffffffffffffffffffffffff1602179055506060820151816003015560808201518160040190816105d2919061167f565b509050506040518060a001604052808781526020018681526020018573ffffffffffffffffffffffffffffffffffffffff16815260200184815260200182815250600188604051610623919061140a565b90815260200160405180910390206000820151816000019081610646919061167f565b50602082015181600101908161065c919061167f565b5060408201518160020160006101000a81548173ffffffffffffffffffffffffffffffffffffffff021916908373ffffffffffffffffffffffffffffffffffffffff1602179055506060820151816003015560808201518160040190816106c3919061167f565b509050506002879080600181540180825580915050600190039060005260206000200160009091909190915090816106fb919061167f565b5050505050505050565b606080600060028054905067ffffffffffffffff81111561072957610728610ca3565b5b60405190808252806020026020018201604052801561075c57816020015b60608152602001906001900390816107475790505b509050600060028054905067ffffffffffffffff8111156107805761077f610ca3565b5b6040519080825280602002602001820160405280156107b957816020015b6107a6610b2b565b81526020019060019003908161079e5790505b50905060005b600280549050811015610b1e57600281815481106107e0576107df611751565b5b9060005260206000200180546107f59061139d565b80601f01602080910402602001604051908101604052809291908181526020018280546108219061139d565b801561086e5780601f106108435761010080835404028352916020019161086e565b820191906000526020600020905b81548152906001019060200180831161085157829003601f168201915b505050505083828151811061088657610885611751565b5b60200260200101819052506001600282815481106108a7576108a6611751565b5b906000526020600020016040516108be9190611803565b90815260200160405180910390206040518060a00160405290816000820180546108e79061139d565b80601f01602080910402602001604051908101604052809291908181526020018280546109139061139d565b80156109605780601f1061093557610100808354040283529160200191610960565b820191906000526020600020905b81548152906001019060200180831161094357829003601f168201915b505050505081526020016001820180546109799061139d565b80601f01602080910402602001604051908101604052809291908181526020018280546109a59061139d565b80156109f25780601f106109c7576101008083540402835291602001916109f2565b820191906000526020600020905b8154815290600101906020018083116109d557829003601f168201915b505050505081526020016002820160009054906101000a900473ffffffffffffffffffffffffffffffffffffffff1673ffffffffffffffffffffffffffffffffffffffff1673ffffffffffffffffffffffffffffffffffffffff16815260200160038201548152602001600482018054610a6b9061139d565b80601f0160208091040260200160405190810160405280929190818152602001828054610a979061139d565b8015610ae45780601f10610ab957610100808354040283529160200191610ae4565b820191906000526020600020905b815481529060010190602001808311610ac757829003601f168201915b505050505081525050828281518110610b0057610aff611751565b5b60200260200101819052508080610b1690611849565b9150506107bf565b5081819350935050509091565b6040518060a001604052806060815260200160608152602001600073ffffffffffffffffffffffffffffffffffffffff16815260200160008152602001606081525090565b6000604051905090565b600080fd5b600080fd5b6000819050919050565b610b9781610b84565b8114610ba257600080fd5b50565b600081359050610bb481610b8e565b92915050565b600060208284031215610bd057610bcf610b7a565b5b6000610bde84828501610ba5565b91505092915050565b600081519050919050565b600082825260208201905092915050565b60005b83811015610c21578082015181840152602081019050610c06565b60008484015250505050565b6000601f19601f8301169050919050565b6000610c4982610be7565b610c538185610bf2565b9350610c63818560208601610c03565b610c6c81610c2d565b840191505092915050565b60006020820190508181036000830152610c918184610c3e565b905092915050565b600080fd5b600080fd5b7f4e487b7100000000000000000000000000000000000000000000000000000000600052604160045260246000fd5b610cdb82610c2d565b810181811067ffffffffffffffff82111715610cfa57610cf9610ca3565b5b80604052505050565b6000610d0d610b70565b9050610d198282610cd2565b919050565b600067ffffffffffffffff821115610d3957610d38610ca3565b5b610d4282610c2d565b9050602081019050919050565b82818337600083830152505050565b6000610d71610d6c84610d1e565b610d03565b905082815260208101848484011115610d8d57610d8c610c9e565b5b610d98848285610d4f565b509392505050565b600082601f830112610db557610db4610c99565b5b8135610dc5848260208601610d5e565b91505092915050565b600060208284031215610de457610de3610b7a565b5b600082013567ffffffffffffffff811115610e0257610e01610b7f565b5b610e0e84828501610da0565b91505092915050565b600082825260208201905092915050565b6000610e3382610be7565b610e3d8185610e17565b9350610e4d818560208601610c03565b610e5681610c2d565b840191505092915050565b600073ffffffffffffffffffffffffffffffffffffffff82169050919050565b6000610e8c82610e61565b9050919050565b610e9c81610e81565b82525050565b610eab81610b84565b82525050565b600060a0830160008301518482036000860152610ece8282610e28565b91505060208301518482036020860152610ee88282610e28565b9150506040830151610efd6040860182610e93565b506060830151610f106060860182610ea2565b5060808301518482036080860152610f288282610e28565b9150508091505092915050565b60006020820190508181036000830152610f4f8184610eb1565b905092915050565b6000610f6282610e61565b9050919050565b610f7281610f57565b8114610f7d57600080fd5b50565b600081359050610f8f81610f69565b92915050565b60008060408385031215610fac57610fab610b7a565b5b6000610fba85828601610f80565b9250506020610fcb85828601610ba5565b9150509250929050565b610fde81610e81565b8114610fe957600080fd5b50565b600081359050610ffb81610fd5565b92915050565b600080600080600080600060e0888a0312156110205761101f610b7a565b5b600088013567ffffffffffffffff81111561103e5761103d610b7f565b5b61104a8a828b01610da0565b975050602088013567ffffffffffffffff81111561106b5761106a610b7f565b5b6110778a828b01610da0565b965050604088013567ffffffffffffffff81111561109857611097610b7f565b5b6110a48a828b01610da0565b95505060606110b58a828b01610fec565b94505060806110c68a828b01610ba5565b93505060a088013567ffffffffffffffff8111156110e7576110e6610b7f565b5b6110f38a828b01610da0565b92505060c088013567ffffffffffffffff81111561111457611113610b7f565b5b6111208a828b01610da0565b91505092959891949750929550565b600081519050919050565b600082825260208201905092915050565b6000819050602082019050919050565b60006111678383610e28565b905092915050565b6000602082019050919050565b60006111878261112f565b611191818561113a565b9350836020820285016111a38561114b565b8060005b858110156111df57848403895281516111c0858261115b565b94506111cb8361116f565b925060208a019950506001810190506111a7565b50829750879550505050505092915050565b600081519050919050565b600082825260208201905092915050565b6000819050602082019050919050565b600060a083016000830151848203600086015261123a8282610e28565b915050602083015184820360208601526112548282610e28565b91505060408301516112696040860182610e93565b50606083015161127c6060860182610ea2565b50608083015184820360808601526112948282610e28565b9150508091505092915050565b60006112ad838361121d565b905092915050565b6000602082019050919050565b60006112cd826111f1565b6112d781856111fc565b9350836020820285016112e98561120d565b8060005b85811015611325578484038952815161130685826112a1565b9450611311836112b5565b925060208a019950506001810190506112ed565b50829750879550505050505092915050565b60006040820190508181036000830152611351818561117c565b9050818103602083015261136581846112c2565b90509392505050565b7f4e487b7100000000000000000000000000000000000000000000000000000000600052602260045260246000fd5b600060028204905060018216806113b557607f821691505b6020821081036113c8576113c761136e565b5b50919050565b600081905092915050565b60006113e482610be7565b6113ee81856113ce565b93506113fe818560208601610c03565b80840191505092915050565b600061141682846113d9565b915081905092915050565b600081905092915050565b50565b600061143c600083611421565b91506114478261142c565b600082019050919050565b600061145d8261142f565b9150819050919050565b7f6661696c75726521204574686572206e6f742073656e74000000000000000000600082015250565b600061149d601783610bf2565b91506114a882611467565b602082019050919050565b600060208201905081810360008301526114cc81611490565b9050919050565b60008190508160005260206000209050919050565b60006020601f8301049050919050565b600082821b905092915050565b6000600883026115357fffffffffffffffffffffffffffffffffffffffffffffffffffffffffffffffff826114f8565b61153f86836114f8565b95508019841693508086168417925050509392505050565b6000819050919050565b600061157c61157761157284610b84565b611557565b610b84565b9050919050565b6000819050919050565b61159683611561565b6115aa6115a282611583565b848454611505565b825550505050565b600090565b6115bf6115b2565b6115ca81848461158d565b505050565b5b818110156115ee576115e36000826115b7565b6001810190506115d0565b5050565b601f82111561163357611604816114d3565b61160d846114e8565b8101602085101561161c578190505b611630611628856114e8565b8301826115cf565b50505b505050565b600082821c905092915050565b600061165660001984600802611638565b1980831691505092915050565b600061166f8383611645565b9150826002028217905092915050565b61168882610be7565b67ffffffffffffffff8111156116a1576116a0610ca3565b5b6116ab825461139d565b6116b68282856115f2565b600060209050601f8311600181146116e957600084156116d7578287015190505b6116e18582611663565b865550611749565b601f1984166116f7866114d3565b60005b8281101561171f578489015182556001820191506020850194506020810190506116fa565b8683101561173c5784890151611738601f891682611645565b8355505b6001600288020188555050505b505050505050565b7f4e487b7100000000000000000000000000000000000000000000000000000000600052603260045260246000fd5b6000815461178d8161139d565b61179781866113ce565b945060018216600081146117b257600181146117c7576117fa565b60ff19831686528115158202860193506117fa565b6117d0856114d3565b60005b838110156117f2578154818901526001820191506020810190506117d3565b838801955050505b50505092915050565b600061180f8284611780565b915081905092915050565b7f4e487b7100000000000000000000000000000000000000000000000000000000600052601160045260246000fd5b600061185482610b84565b91507fffffffffffffffffffffffffffffffffffffffffffffffffffffffffffffffff82036118865761188561181a565b5b60018201905091905056fea2646970667358221220dbb5513669c9944031cae0f0e96b4d2c3cea85e9f126a02f4b79bc5af8b7ff0064736f6c63430008100033",
  "immutableReferences": {},
  "source": "pragma solidity >=0.7.0 <0.9.0;\npragma experimental ABIEncoderV2;\n\ncontract Mail {\n    struct Document {\n        string name;\n        string description;\n        address owner;\n        uint price;\n        string path;\n    }\n    \n    //uint addressRegistryCount;\n\n    mapping (string =>Document) documents;\n    mapping (string =>Document) documents_blur;\n     //Document[] public\n\n     string[] public _document_key;\n    \n\n     function addDocument (string memory _key, string memory name1, string memory description1, address owner1, uint price1, string memory path1, string memory pathBlur1) public {\n          documents[_key]= (Document(name1, description1, owner1, price1, path1));\n          documents_blur[_key]= (Document(name1, description1, owner1, price1, pathBlur1));\n         _document_key.push(string(_key));\n         //addressRegistryCount++;\n     }\n\n     function getDocuments () public view returns (string[] memory, Document[] memory ) {\n         string[] memory tempKey = new string[](_document_key.length);\n         Document[] memory tempDocument = new Document[](_document_key.length);\n          for (uint i = 0; i < _document_key.length; i++) {\n            tempKey[i] = _document_key[i];\n            tempDocument[i] = documents_blur[_document_key[i]];\n        }\n        return (tempKey, tempDocument);\n    }\n\n\n     function getDocumentByKey (string memory _key) public view returns ( Document memory ) {\n        return documents[_key];\n    }\n\n    function buyDocument(address payable _to, uint price1) public payable{\n        (bool sent, )= _to.call{value: price1}(\"\");\n        require(sent, \"failure! Ether not sent\");\n    }\n\n}",
  "sourcePath": "/home/lisk/document_sign/solidity_folder/contracts/Mail.sol",
  "compiler": {
    "name": "solc",
    "version": "0.8.16+commit.07a7930e.Emscripten.clang"
  },
  "schemaVersion": "3.4.9",
  "updatedAt": "2022-08-12T21:16:34.928Z",
  "networkType": "ethereum",
  "devdoc": {
    "kind": "dev",
    "methods": {},
    "version": 1
  },
  "userdoc": {
    "kind": "user",
    "methods": {},
    "version": 1
  }
}