{
  "contractName": "Subscriber",
  "abi": [
    {
      "inputs": [
        {
          "internalType": "uint256",
          "name": "",
          "type": "uint256"
        }
      ],
      "name": "_document_key",
      "outputs": [
        {
          "internalType": "string",
          "name": "",
          "type": "string"
        }
      ],
      "stateMutability": "view",
      "type": "function",
      "constant": true
    },
    {
      "inputs": [
        {
          "internalType": "string",
          "name": "_key",
          "type": "string"
        },
        {
          "internalType": "string",
          "name": "key",
          "type": "string"
        },
        {
          "internalType": "address",
          "name": "owner1",
          "type": "address"
        },
        {
          "internalType": "string",
          "name": "path1",
          "type": "string"
        }
      ],
      "name": "addDocument",
      "outputs": [],
      "stateMutability": "nonpayable",
      "type": "function"
    },
    {
      "inputs": [
        {
          "internalType": "string",
          "name": "_key",
          "type": "string"
        }
      ],
      "name": "getDocumentByKey",
      "outputs": [
        {
          "components": [
            {
              "internalType": "string",
              "name": "key",
              "type": "string"
            },
            {
              "internalType": "address",
              "name": "owner",
              "type": "address"
            },
            {
              "internalType": "string",
              "name": "path",
              "type": "string"
            }
          ],
          "internalType": "struct Subscriber.Document[]",
          "name": "",
          "type": "tuple[]"
        }
      ],
      "stateMutability": "view",
      "type": "function",
      "constant": true
    }
  ],
  "bytecode": "0x608060405234801561001057600080fd5b50610d48806100206000396000f3fe608060405234801561001057600080fd5b50600436106100415760003560e01c80631874aa891461004657806324f2ae1f146100765780634e068743146100a6575b600080fd5b610060600480360381019061005b91906104d7565b6100c2565b60405161006d9190610594565b60405180910390f35b610090600480360381019061008b91906106eb565b61016e565b60405161009d91906108d8565b60405180910390f35b6100c060048036038101906100bb9190610926565b610365565b005b600181815481106100d257600080fd5b9060005260206000200160009150905080546100ed90610a10565b80601f016020809104026020016040519081016040528092919081815260200182805461011990610a10565b80156101665780601f1061013b57610100808354040283529160200191610166565b820191906000526020600020905b81548152906001019060200180831161014957829003601f168201915b505050505081565b60606000826040516101809190610a7d565b9081526020016040518091039020805480602002602001604051908101604052809291908181526020016000905b8282101561035a57838290600052602060002090600302016040518060600160405290816000820180546101e190610a10565b80601f016020809104026020016040519081016040528092919081815260200182805461020d90610a10565b801561025a5780601f1061022f5761010080835404028352916020019161025a565b820191906000526020600020905b81548152906001019060200180831161023d57829003601f168201915b505050505081526020016001820160009054906101000a900473ffffffffffffffffffffffffffffffffffffffff1673ffffffffffffffffffffffffffffffffffffffff1673ffffffffffffffffffffffffffffffffffffffff1681526020016002820180546102c990610a10565b80601f01602080910402602001604051908101604052809291908181526020018280546102f590610a10565b80156103425780601f1061031757610100808354040283529160200191610342565b820191906000526020600020905b81548152906001019060200180831161032557829003601f168201915b505050505081525050815260200190600101906101ae565b505050509050919050565b6000846040516103759190610a7d565b908152602001604051809103902060405180606001604052808581526020018473ffffffffffffffffffffffffffffffffffffffff16815260200183815250908060018154018082558091505060019003906000526020600020906003020160009091909190915060008201518160000190816103f29190610c40565b5060208201518160010160006101000a81548173ffffffffffffffffffffffffffffffffffffffff021916908373ffffffffffffffffffffffffffffffffffffffff160217905550604082015181600201908161044f9190610c40565b5050506001849080600181540180825580915050600190039060005260206000200160009091909190915090816104869190610c40565b5050505050565b6000604051905090565b600080fd5b600080fd5b6000819050919050565b6104b4816104a1565b81146104bf57600080fd5b50565b6000813590506104d1816104ab565b92915050565b6000602082840312156104ed576104ec610497565b5b60006104fb848285016104c2565b91505092915050565b600081519050919050565b600082825260208201905092915050565b60005b8381101561053e578082015181840152602081019050610523565b60008484015250505050565b6000601f19601f8301169050919050565b600061056682610504565b610570818561050f565b9350610580818560208601610520565b6105898161054a565b840191505092915050565b600060208201905081810360008301526105ae818461055b565b905092915050565b600080fd5b600080fd5b7f4e487b7100000000000000000000000000000000000000000000000000000000600052604160045260246000fd5b6105f88261054a565b810181811067ffffffffffffffff82111715610617576106166105c0565b5b80604052505050565b600061062a61048d565b905061063682826105ef565b919050565b600067ffffffffffffffff821115610656576106556105c0565b5b61065f8261054a565b9050602081019050919050565b82818337600083830152505050565b600061068e6106898461063b565b610620565b9050828152602081018484840111156106aa576106a96105bb565b5b6106b584828561066c565b509392505050565b600082601f8301126106d2576106d16105b6565b5b81356106e284826020860161067b565b91505092915050565b60006020828403121561070157610700610497565b5b600082013567ffffffffffffffff81111561071f5761071e61049c565b5b61072b848285016106bd565b91505092915050565b600081519050919050565b600082825260208201905092915050565b6000819050602082019050919050565b600082825260208201905092915050565b600061077c82610504565b6107868185610760565b9350610796818560208601610520565b61079f8161054a565b840191505092915050565b600073ffffffffffffffffffffffffffffffffffffffff82169050919050565b60006107d5826107aa565b9050919050565b6107e5816107ca565b82525050565b600060608301600083015184820360008601526108088282610771565b915050602083015161081d60208601826107dc565b50604083015184820360408601526108358282610771565b9150508091505092915050565b600061084e83836107eb565b905092915050565b6000602082019050919050565b600061086e82610734565b610878818561073f565b93508360208202850161088a85610750565b8060005b858110156108c657848403895281516108a78582610842565b94506108b283610856565b925060208a0199505060018101905061088e565b50829750879550505050505092915050565b600060208201905081810360008301526108f28184610863565b905092915050565b610903816107ca565b811461090e57600080fd5b50565b600081359050610920816108fa565b92915050565b600080600080608085870312156109405761093f610497565b5b600085013567ffffffffffffffff81111561095e5761095d61049c565b5b61096a878288016106bd565b945050602085013567ffffffffffffffff81111561098b5761098a61049c565b5b610997878288016106bd565b93505060406109a887828801610911565b925050606085013567ffffffffffffffff8111156109c9576109c861049c565b5b6109d5878288016106bd565b91505092959194509250565b7f4e487b7100000000000000000000000000000000000000000000000000000000600052602260045260246000fd5b60006002820490506001821680610a2857607f821691505b602082108103610a3b57610a3a6109e1565b5b50919050565b600081905092915050565b6000610a5782610504565b610a618185610a41565b9350610a71818560208601610520565b80840191505092915050565b6000610a898284610a4c565b915081905092915050565b60008190508160005260206000209050919050565b60006020601f8301049050919050565b600082821b905092915050565b600060088302610af67fffffffffffffffffffffffffffffffffffffffffffffffffffffffffffffffff82610ab9565b610b008683610ab9565b95508019841693508086168417925050509392505050565b6000819050919050565b6000610b3d610b38610b33846104a1565b610b18565b6104a1565b9050919050565b6000819050919050565b610b5783610b22565b610b6b610b6382610b44565b848454610ac6565b825550505050565b600090565b610b80610b73565b610b8b818484610b4e565b505050565b5b81811015610baf57610ba4600082610b78565b600181019050610b91565b5050565b601f821115610bf457610bc581610a94565b610bce84610aa9565b81016020851015610bdd578190505b610bf1610be985610aa9565b830182610b90565b50505b505050565b600082821c905092915050565b6000610c1760001984600802610bf9565b1980831691505092915050565b6000610c308383610c06565b9150826002028217905092915050565b610c4982610504565b67ffffffffffffffff811115610c6257610c616105c0565b5b610c6c8254610a10565b610c77828285610bb3565b600060209050601f831160018114610caa5760008415610c98578287015190505b610ca28582610c24565b865550610d0a565b601f198416610cb886610a94565b60005b82811015610ce057848901518255600182019150602085019450602081019050610cbb565b86831015610cfd5784890151610cf9601f891682610c06565b8355505b6001600288020188555050505b50505050505056fea2646970667358221220bd2cd953f2ef8a027e9a37d16c8e20090209726cbe0a8d8d3a710d7611f5e62764736f6c63430008100033",
  "immutableReferences": {},
  "source": "pragma solidity >=0.7.0 <0.9.0;\npragma experimental ABIEncoderV2;\n\ncontract Subscriber {\n    struct Document {\n        string key;\n        address owner;\n        string path;\n    }\n    \n    //uint addressRegistryCount;\n\n    mapping (string =>Document[]) documents;\n    string[] public _document_key;\n    \n\n     function addDocument (string memory _key, string memory key, address owner1, string memory path1) public {\n          documents[_key].push(Document(key, owner1, path1));\n         _document_key.push(string(_key));\n     }\n\n\n     function getDocumentByKey (string memory _key) public view returns ( Document[] memory ) {\n        return documents[_key];\n    }\n}",
  "sourcePath": "/home/lisk/document_sign/solidity_folder/contracts/Subscriber.sol",
  "compiler": {
    "name": "solc",
    "version": "0.8.16+commit.07a7930e.Emscripten.clang"
  },
  "schemaVersion": "3.4.9",
  "updatedAt": "2022-08-12T21:45:11.919Z",
  "networkType": "ethereum",
  "devdoc": {
    "kind": "dev",
    "methods": {},
    "version": 1
  },
  "userdoc": {
    "kind": "user",
    "methods": {},
    "version": 1
  }
}